:10000000C0C100000C94A9160C94D4160C94FF16D1
:100010000C942A170C9455170C9480170C94AB175A
:100020000C94D617DFC10000DDC10000DBC1000069
:10003000D9C100000C94861ED5C10000D3C10000B8
:10004000D1C10000CFC10000CDC10000CBC1000074
:10005000C9C10000C7C10000C5C100000C9401184F
:10006000C1C100000C94B71A0C94ED1ABBC100007A
:10007000B9C10000B7C10000B5C10000B3C10000A4
:10008000B1C10000AFC10000ADC10000ABC10000B4
:100090000C94431B0C94791BA5C10000A3C1000064
:1000A000A1C100009FC100009DC100009BC10000D4
:1000B00099C1000097C1000095C1000093C10000E4
:1000C00091C100008FC100008DC100000C94CF1BB6
:1000D0000C94051C87C100000C945B1C0C94911CB3
:1000E00081C100004804C303CA04E203CA04010436
:1000F000190424042C04CA043404480452045C0483
:10010000CA047B04CA049904A104AD043219351948
:10011000241928192E196C1939193D194319471931
:100120004B195119551959196C195F196319671928
:100130002027DE2848294B2922285528DF2600279A
:10014000C3262529142921294B294B294B29AE26C1
:1001500000000A0B02090C0D0E0807030401000041
:10016000000000000000000000000000000000008F
:10017000000000000000000000000000121110004C
:10018000000000000000000000000000000000006F
:10019000000000000000010210202008081020408C
:1001A000102040800201020108040201010204083B
:1001B00010204080804020100804020180040201C9
:1001C0008040201008040201080402010102040812
:1001D000102040800102040810204080050505051C
:1001E000070508080808020202020A0A08080404AF
:1001F00004040101010101010101030303030303DD
:100200000303040707070C0C0C0C0C0C0C0C02026B
:10021000020206060606060606060B0B0B0B0B0B68
:100220000B0B00002200250028002B002E003100BF
:10023000340002010000050108010B0102001D3A13
:100240002774694E53E8F5D2CF9C81A6BBCDD0F779
:10025000EAB9A4839E25381F02514C6B76879ABD5C
:10026000A0F3EEC9D46F7255481B06213C4A577063
:100270006D3E230419A2BF9885D6CBECF1130E294D
:1002800034677A5D40FBE6C1DC8F92B5A8DEC3E43B
:10029000F9AAB7908D362B0C11425F78659489AE20
:1002A000B3E0FDDAC77C61465B0815322F59446321
:1002B0007E2D30170AB1AC8B96C5D8FFE2263B1CC9
:1002C00001524F6875CED3F4E9BAA7809DEBF6D101
:1002D000CC9F82A5B8031E3924776A4D50A1BC9BE0
:1002E00086D5C8EFF24954736E3D20071A6C7156DB
:1002F0004B1805223F8499BEA3F0EDCAD735280FCD
:1003000012415C7B66DDC0E7FAA9B4938EF8E5C2C2
:10031000DF8C91B6AB100D2A3764795E43B2AF889B
:1003200095C6DBFCE15A47607D2E3314097F624598
:10033000580B16312C978AADB0E3FED9C44E414E0E
:10034000494E495459494E46CDCCCC3D0AD7233C61
:1003500017B7D13877CC2B329595E6241FB14F0AC9
:10036000000020410000C84200401C4620BCBE4C9A
:10037000CA1B0E5AAEC59D74161BA21B2E1CBA1C9E
:10038000261D11241FBECFEFD1E2DEBFCDBF00E09E
:100390000CBF14E0A0E0B2E0EEEEFAE600E00BBF26
:1003A00002C007900D92A033B107D9F728E0A0E36F
:1003B000B4E001C01D92A439B207E1F711E0C1EC2D
:1003C000D1E000E006C021970109802FFE010E94C4
:1003D000372DCC3BD10780E00807A9F70E94D12A2E
:1003E0000C9475350DCEAB01BC0185E095E00C9405
:1003F000131EAB01BC0182EA95E00C94131EAB0105
:10040000BC018FE396E00C94131EAB01BC018CED94
:1004100096E00C94131EAF92BF92CF92DF92EF92B0
:10042000FF920F931F93CF93DF931F921F92CDB72D
:10043000DEB77B015901CDB6DEB69B01220F331F1B
:100440006DB77EB7621B730B0FB6F8947EBF0FBEFD
:100450006DBF0DB71EB70F5F1F4FE82FF0E0EE0F17
:10046000FF1FEE5EFD4F0190F081E02DB701C80146
:1004700049835A831995F8014981A42F5A81B52FD0
:10048000E00EF11EEE15FF0519F081918D93FACF64
:1004900081E0F50180830FB6F894DEBE0FBECDBEBD
:1004A0000F900F90DF91CF911F910F91FF90EF90E0
:1004B000DF90CF90BF90AF900895CF92DF92EF92F0
:1004C000FF920F931F93CF93DF93CDB7DEB7C35443
:1004D000D1090FB6F894DEBF0FBECDBFF82E8B0149
:1004E000E52EC82ED12CCC0CDD1CF601E65FFD4FAD
:1004F0000190F081E02D22962FAF229723963FAFF7
:10050000239724964FAF24971995BC0122962FADBF
:10051000229723963FAD239724964FAD24978017BB
:10052000910711F45E2D38C08017910728F4E42F4D
:10053000FE2D0E0F1F1F33C0C801880F991F86178D
:10054000970740F5F601EE5EFD4FCB01B8010E9422
:10055000EE2CCB010197809FB001819F700D909F81
:10056000700D11240190F081E02DCE0101962296AC
:100570002FAF229723963FAF239724964FAF249710
:10058000199522962FAD229723963FAD2397249657
:100590004FAD24975E2DB8018F2D3DDF07C0E017CA
:1005A000F10711F01192FBCFF9011082CD5BDF4F03
:1005B0000FB6F894DEBF0FBECDBFDF91CF911F9174
:1005C0000F91FF90EF90DF90CF90089585E095E038
:1005D0000C949C1982EA95E00C949C198FE396E0A8
:1005E0000C949C198CED96E00C949C1961E070E0E1
:1005F00090E00E94582D9093360480933504892B07
:1006000081F46FED72E085E095E00E947B1D87E04C
:1006100093E09F938F930E94C53280E090E00C940A
:100620007535089580913504909136040E94072E07
:10063000109236041092350408952F923F924F92F3
:100640005F926F927F928F929F92AF92BF92CF9262
:10065000DF92EF92FF920F931F93CF93DF93CDB76B
:10066000DEB760970FB6F894DEBF0FBECDBF3C017A
:100670007E836D835A8349833C832B8318870F8342
:10068000FA86E986DC86CB86BE86AD86988A8F861A
:10069000ECA5FDA5108245E050E06CE173E00E94FE
:1006A000A8328C0145E050E062E273E0C3010E9491
:1006B000A8320115110531F0009741F088248A9481
:1006C000982C07C088248394912C03C042E0842E88
:1006D000912C892B19F0012B09F063C1E12CF12C2D
:1006E000CBA4D12C6114710409F45BC1B601C30120
:1006F00001960E9494323C015C01FFEFAF1ABF0AE1
:10070000B601C5010E949432861997092C0121E097
:10071000421A510861E070E0C2010E94582D8C011C
:100720001414150414F4892B19F0D501F80108C02C
:100730008CEFECA5FDA5808380E090E00E947535EC
:10074000CF01801B910B841595051CF48D9181932D
:10075000F7CFF801E40DF51D1082F1E08F1691043A
:1007600031F022E08216910409F486C013C18BE0B7
:10077000E816F10408F00EC1F7018827EE58FF4F84
:100780008F4F0C94372DC8010E9461321B012C0140
:10079000E981FA816083718382839383B601C50105
:1007A0000E9494323C01FC018181833509F0E3C051
:1007B000D201C101B058E981FA8180839183A2837B
:1007C000B383D9C0C8010E9461321B012C01EB81A7
:1007D000FC816083718382839383B601C5010E948B
:1007E00094323C01FC018181873509F0C8C0D201F7
:1007F000C101B058EB81FC8180839183A283B383D4
:10080000BEC0F3018181813309F451C0ED81FE81C5
:100810001082118212821382E981FA811082118280
:1008200012821382EB81FC81108211821282138268
:10083000B1C04AE050E060E070E0C8010E942D3194
:10084000EF81F8856083A6C060E070E0C8010E9477
:100850009F2EE985FA857CC060E070E0C8010E94A7
:100860009F2EEB85FC8574C060E070E0C8010E949B
:100870009F2EED85FE856CC0F9E0EF16F10408F0BF
:1008800089C0F7018827E358FF4F8F4F0C94372D0D
:100890004AE050E060E070E0C8010E940530ED8160
:1008A000FE8164C0F3018181813409F073C021E0CD
:1008B000ECA5FDA520836EC0C8010E9461321B011A
:1008C0002C01E981FA816083718382839383B6016D
:1008D000C5010E9494323C01FC018181833509F0FD
:1008E00052C0D201C101B058E981FA81808391835D
:1008F000A283B38348C0C8010E9461321B012C014E
:10090000EB81FC816083718382839383B601C5018F
:100910000E9494323C01FC0181818735C1F5D201EE
:10092000C101B058EB81FC8180839183A283B383A2
:100930002EC060E070E0C8010E949F2EEF85F8890C
:1009400007C060E070E0C8010E949F2EEEA1FFA1E9
:1009500060837183828393831DC04AE050E060E02E
:1009600070E0C8010E940530E8A5F9A56083718395
:10097000828393830FC032E0E32EF12C0BC024E07E
:10098000E22EF12C07C093E0E92EF12C03C085E0A4
:10099000E82EF12CC8010E94072EFFEFEF1AFF0A84
:1009A000A1CE60960FB6F894DEBF0FBECDBFDF912B
:1009B000CF911F910F91FF90EF90DF90CF90BF905C
:1009C000AF909F908F907F906F905F904F903F90EF
:1009D0002F900895AF92BF92CF92DF92EF92FF9245
:1009E0000F931F93CF93DF931F92CDB7DEB77C0198
:1009F0006A0170E00E9494328E199F098150A82EDE
:100A0000B12C61E070E0C50101960E94582D8C0167
:100A1000009721F0F7013196DC010DC08DEFF60152
:100A2000808387E093E09F938F930E94C53280E09C
:100A300090E00E947535CD01801B910B8A159B05B6
:100A40001CF481918D93F7CFF501E00FF11F108217
:100A500040E150E060E070E0C8010E942D31C80123
:100A600069830E94072E6981862F0F90DF91CF91B5
:100A70001F910F91FF90EF90DF90CF90BF90AF90BC
:100A800008952F923F924F925F926F927F928F9232
:100A90009F92AF92BF92CF92DF92EF92FF920F930D
:100AA0001F93CF93DF9300D01F92CDB7DEB73C01E9
:100AB000442E222E5E2CF40110827C01262F30E081
:100AC0003A832983B12C252D30E03C832B833324BA
:100AD0003394C7018619970929813A8182179307B0
:100AE0000CF0AFC0F70161917F0120913304309188
:100AF00034042A153B05B9F4A50160E070E080914B
:100B00003504909136040E948D3210923204109276
:100B100034041092330410923104109230042EEFFA
:100B2000F4012083D6CF80913104811110C064116B
:100B3000D0CF30923104A50160E070E0809135049F
:100B4000909136040E948D3210923204C2CF80916F
:100B500035049091360464110CC0A50160E070E08A
:100B60000E948D3210923204109234041092330499
:100B7000B0CF651103C0309230044EC062114CC03A
:100B8000FC01E20FF31F20826B817C818091350490
:100B9000909136040E9494328C01F4014081042E1D
:100BA000000C550B622D16DF90913204A50160E018
:100BB00070E098131AC0C6010E948D32609135040E
:100BC00070913604A801461B570BC6010E94B6322D
:100BD0008091350490913604081B190BF601E00F43
:100BE000F11F1182F401308203C0C6010E948D32D0
:100BF000A50160E070E080913504909136040E9478
:100C00008D321092320410923404109233041092F8
:100C10003104109230045DCF40913004411105C081
:100C200040913204462740933204A9014F5F5F4F41
:100C30005093340440933304FC01E20FF31F6083AC
:100C400048CF0F900F900F900F90DF91CF911F9191
:100C50000F91FF90EF90DF90CF90BF90AF909F905B
:100C60008F907F906F905F904F903F902F9008955E
:100C70006F927F928F929F92AF92BF92CF92DF92AC
:100C8000EF92FF920F931F93CF93DF93CDB7DEB711
:100C900066970FB6F894DEBF0FBECDBF8091D70721
:100CA000082E000C990B0197029710F483E001C005
:100CB00080E08093D7076091C7077091C8079E01B5
:100CC0002A5E3F4F46E558E081E0F7DB9E89809140
:100CD000DA07992309F47FC0811103C081E0809372
:100CE000DA0737E8632E38E0732E109287081092E7
:100CF000820810928308109284081092850810923E
:100D0000760810927708109278081092790810925D
:100D10007A0810927B0810927C0810927D0810923D
:100D2000860810927E0810927F0810928008109218
:100D30008108CE0145964C0140E5A42E56E0C52E13
:100D400058E0D52E6AE2E62E0CE22DE044E260E2A5
:100D500086E598E096DE8D89813041F57F926F922D
:100D60008CE28F9380E58F93CE0101969F938F93B2
:100D700004969F938F932EE7822E28E0922E04965E
:100D80005C0104966C0104967C0106E818E02AE7F1
:100D900038E046E758E062E878E086E098E04DDC2D
:100DA0000FB6F894DEBF0FBECDBF03C087FD8093A2
:100DB00087088091D707082E000C990B009731F017
:100DC0008330910529F481E090E002C082E090E058
:100DD0008093D7074DC0882309F44AC080916F04DF
:100DE0008093870880916B0490916C04A0916D04AE
:100DF000B0916E048093820890938308A093840836
:100E0000B093850880915F0490916004A091610483
:100E1000B09162048093760890937708A093780845
:100E2000B09379088091630490916404A091650463
:100E3000B091660480937A0890937B08A0937C0815
:100E4000B0937D0880917004809386088091670438
:100E500090916804A0916904B0916A0480937E081F
:100E600090937F08A0938008B09381081092DA07CE
:100E700081E090E00E9455164091F1075091F207F1
:100E80006091F3077091F40780E090E00E945116A2
:100E90008090010890900208A0900308B090040888
:100EA00020E030E040E85FEBC501B4010E94C22BB6
:100EB000882331F1C090F107D090F207E090F3075A
:100EC000F090F407A7019601C501B4010E945D2BC3
:100ED0004B015C0120E030E040E054E3C701B60183
:100EE0000E947C2C9B01AC01C501B4010E94782CAE
:100EF000181634F088E293E09093DC078093DB07C8
:100F000080910508882331F088E293E09093DC0714
:100F10008093DB078091F5079091F607A091F70782
:100F2000B091F807BC01CD016F5F7F4F8F4F9F4F8E
:100F30006093F5077093F6078093F7079093F8078F
:100F40006115710581059105A1F40091F9071091D2
:100F5000FA072091FB073091FC070F5F1F4F2F4FBF
:100F60003F4F0093F9071093FA072093FB07309344
:100F7000FC07C090FD07D090FE07E090FF07F090BF
:100F800000080E94C62BA70196010E947C2C4B01F1
:100F90005C016091F9077091FA078091FB079091CD
:100FA000FC070E94C62BA70196010E947C2C20E022
:100FB00030E040E85FE40E947C2C9B01AC01C5015D
:100FC000B4010E945E2B6093F1077093F207809347
:100FD000F3079093F40766960FB6F894DEBF0FBE42
:100FE000CDBFDF91CF911F910F91FF90EF90DF90D8
:100FF000CF90BF90AF909F908F907F906F9008950B
:101000001F93CF93DF93EBEDF7E08BE2DF011D92AF
:101010008A95E9F78AE097EDAFE1B1E486A397A35B
:10102000A0A7B1A78FE892ECA5EFBCE382A393A39E
:10103000A4A3B5A38CE191EEA7E9B8E084839583DE
:10104000A683B7838DE89BEEA2E2B6EF80879187F7
:10105000A287B38788EA92EBACE8B8EE84879587DD
:10106000A687B78781E89DEDA2E0B9E3808B918BDD
:10107000A28BB38BA3E5B4E0B383A283CBE4D4E02B
:101080001196DC93CE938EEB93E0998388839B83B8
:101090008A8387ED97E09D838C839F838E838FEE79
:1010A00097E015969C938E9314978FED97E0139687
:1010B0009C938E93129781EF97E017969C938E9353
:1010C000169782E8A6E0B8E0ED0119928A95E9F753
:1010D000CDEBD7E08EE1DE011D928A95E9F727E39B
:1010E00034E084E1D9011D928A95E9F7358B248B90
:1010F00080E190E0F901918380838AEA92E0938312
:1011000082838AE892E0958384838EE392E09783DA
:1011100086838AE192E09187808711E01C8F81E0CD
:1011200090E0A0E0B0E08E839F83A887B98721E09C
:1011300030E03D872C8720E230E03B872A871B8FF9
:1011400089839A83AB83BC8380E550DA1D83EFE506
:10115000F4E080898093870884859585A685B78586
:101160008093820890938308A0938408B0938508A5
:1011700080819181A281B3818093760890937708D2
:10118000A0937808B093790884819581A681B7816E
:1011900080937A0890937B08A0937C08B0937D0895
:1011A00081898093860880859185A285B385809307
:1011B0007E0890937F08A0938008B0938108DF9108
:1011C000CF911F9108958091BD07811113C081E0D7
:1011D0008093BD078091BE079091BF07A091C00783
:1011E000B091C1070197A105B10521F48091C20713
:1011F000811118CA0895EF92FF920F931F93CF9316
:10120000DF93DC01EA01F90114968D919C91159709
:1012100012960D911C911397080F191F288139817F
:1012200018964D915C9119974217530728F04D91EC
:101230005C911197452B39F17801E21AF30A18965F
:101240004D915C911997481B590B4E0D5F1D461728
:10125000570794F1A901460F571F40175107E0F0B7
:10126000F182E082338322836E197F097583648360
:10127000161617061CF4382F292F02C030E020E084
:101280003683278313C018968D919C911997821BE2
:10129000930B8617970784F07183608333832283CF
:1012A000158214821782168288819981680F791FAE
:1012B0007983688380E001C081E0DF91CF911F9145
:1012C0000F91FF90EF900895CF92DF92EF92FF92EF
:1012D000CF93DF936B017C0184E48C9DE0018D9DB5
:1012E000D00D1124CF58DB4F8AA99BA9009721F07C
:1012F0000E94072E1BAA1AAA84E48C9DF0018D9DE2
:10130000F00D1124EF58FB4F86A997A9009711F013
:101310000E94072E84E48C9DF0018D9DF00D112418
:10132000EF58FB4F138A128A168A178A108E118E75
:10133000128E138E148E158E168E178E10A211A279
:1013400081E090E093A382A315A214A216A217A293
:1013500010A611A613A612A615A614A616A617A6C1
:1013600010AA11AA13AA12AA15AA14AA17AA16AA91
:1013700011AE10AE12AE13AE14AE15AEDF01DE9696
:101380001D921D921D921C921397EE5BFF4F1182CE
:101390001082DF91CF91FF90EF90DF90CF90089572
:1013A0000F931F93CF93DF93EB01DC018D919C9101
:1013B000FC01A681B781E881F98123E0EE0FFF1FD0
:1013C0002A95E1F712962D913C911397E20FF31FA6
:1013D00000811181AC85BD859D01220F331FDC0189
:1013E00012968D919C911397D901A80FB91F8D91D9
:1013F0009C9124813581232B19F461E070E002C0B7
:1014000062E070E0689F9001699F300D789F300D19
:10141000112488859985289FB001299F700D389FD8
:10142000700D1124EC81FD812E9FC0012F9F900D26
:101430003E9F900D1124800F911FFA0191838083AC
:1014400073836283DF91CF911F910F9108952F9243
:101450003F924F925F926F927F928F929F92AF9244
:10146000BF92CF92DF92EF92FF920F931F93CF9391
:10147000DF9300D000D0CDB7DEB7DC011496ED913C
:10148000FC9115970190F081E02D808591859A83DC
:101490008983A281B381BC83AB83FB01819091904E
:1014A000A190B1908F01C12CD12C7601C814D90420
:1014B000EA04FB040CF05FC0D80114964D905D90D7
:1014C0006D907C90179718964D915D916D917C91E0
:1014D0001B97F8017096FE83ED83F801A081B1811E
:1014E00083E0AA0FBB1F8A95E1F7E981FA81828127
:1014F0009381A80FB91F2D903C901197F801248576
:101500003585220F331F8B819C81280F391FF901EC
:101510000081118114968D919C911597892B19F456
:1015200081E090E002C082E090E0809F9001819F86
:10153000300D909F300D1124249F8001259F100DA8
:10154000349F100D1124249DC001259D900D349DC4
:10155000900D1124A8016D817E81820D931D0E9442
:1015600084328D819E81080F191F9FEFC91AD90AF5
:10157000E90AF90A9BCF26960FB6F894DEBF0FBE94
:10158000CDBFDF91CF911F910F91FF90EF90DF9032
:10159000CF90BF90AF909F908F907F906F905F9013
:1015A0004F903F902F900895CF93DF93DB01A65388
:1015B000BD4F2C91222369F024E4269FF001279F40
:1015C000F00D1124EF58FB4FEF0119922A95E9F71E
:1015D0001C9224E4269FF001279FF00D1124EF5860
:1015E000FB4F14821582168217821186108613868D
:1015F0001286118A108A17861686DF91CF9164CEE3
:101600002F923F924F925F926F927F928F929F9212
:10161000AF92BF92CF92DF92EF92FF920F931F9300
:10162000CF93DF93CDB7DEB728970FB6F894DEBF20
:101630000FBECDBF6B017C011A0184E48C9D90012B
:101640008D9D300D11242F583B4FF90184819581D8
:10165000A681B781892B8A2B8B2B09F4B8C0A12CCA
:10166000B12C412C512C320138872F83C9010496AB
:101670009A838983D9011896BC83AB83E981FA8167
:1016800080819181A281B381481659066A067B0642
:1016900094F5AB81BC81ED91FC91EA0DFB1D22819B
:1016A00033818901812C912C82149304C4F4D801D4
:1016B000ED91FC91309769F0848195812D833E8373
:1016C0000E94072EF801808191810E94072E3E81A1
:1016D0002D81FFEF8F1A9F0A0E5F1F4FE5CFC901C3
:1016E0000E94072E8FEF481A580A680A780A94E079
:1016F000A90EB11CC3CFAF81B88518968D919C916E
:1017000019970E94072EEF81F88582859385892B92
:1017100059F1A12CB12C812C912C84E48C9D800159
:101720008D9D100D112405581B4F8214930484F4D1
:10173000D801ED91FC91EA0DFB1D848195810E94F9
:10174000072EBFEF8B1A9B0AEEE0AE0EB11CEDCF59
:1017500084E48C9DF0018D9DF00D1124EF58FB4F1A
:10176000828593850E94072E84E48C9D90018D9D37
:10177000300D112489010F581B4FD80150968D91BF
:101780009C9151970E94072EF801868597850E94AB
:10179000072EC701B60198DDC701B60128960FB61E
:1017A000F894DEBF0FBECDBFDF91CF911F910F9197
:1017B000FF90EF90DF90CF90BF90AF909F908F9071
:1017C0007F906F905F904F903F902F90EDCE289636
:1017D0000FB6F894DEBF0FBECDBFDF91CF911F9142
:1017E0000F91FF90EF90DF90CF90BF90AF909F90C0
:1017F0008F907F906F905F904F903F902F900895C3
:1018000024E4269FF001279FF00D1124EF58FB4F91
:10181000828993890497029758F485E090E0938B2E
:10182000828B8FEF9FEFDC01828F938FA48FB58F18
:1018300008952F923F924F925F926F927F928F9274
:101840009F92AF92BF92CF92DF92EF92FF920F934F
:101850001F93CF93DF93CDB7DEB7E0970FB6F89421
:10186000DEBF0FBECDBF9AA389A31B016A01280169
:10187000390184E4849D8001859D100D1124980117
:101880002F583B4F7901D9014D925D926D927C9218
:101890001397AB01C301B201B3DEF801EB58FB4F64
:1018A000D6014D915D916D917D918D01CA0140836D
:1018B00051836283738364E070E00E94582DF701C6
:1018C00091878087892B09F49FC11E8E1D8E198EEA
:1018D0001A8E1B8E1C8EF8A2EF8E97012C5F3F4F45
:1018E00038A72FA32C5F3F4F3AA729A7EFA1F8A550
:1018F00080819181A281B381298D3A8D4B8D5C8D40
:10190000281739074A075B070CF0E7C0A9A5BAA555
:101910008D919C912D8D3E8D280F391F3A8B298BEF
:10192000D801ED91FC91EE0FFF1FA9A1BAA18D91F5
:101930009C91E80FF91F80819181F9019183808347
:10194000D80114962D913D914D915C9117972BA341
:101950003CA34DA35EA3085F1F4F62E070E0C1018E
:101960000E94582DE989FA8993838283892B09F48F
:101970004BC11D8A1E8A1F8A188E2D893E894F8968
:10198000588D8BA19CA1ADA1BEA1281739074A078C
:101990005B070CF08FC0D801ED90FC90EE0CFF1CA3
:1019A000E989FA89C280D380CE0CDF1C68E070E040
:1019B00081E090E00E94582DD6018D939C93E98997
:1019C000FA8982819381FC01EE0DFF1DC080D180D8
:1019D000C114D10409F418C1F80184819581A6814C
:1019E000B781F60180839183A283B383085F1F4F81
:1019F000181619061A061B0634F01C8A1B8A812C3D
:101A0000912C54010CC064E070E00E94582DD60166
:101A100015969C938E931497892B79F7F5C0F60150
:101A200080819181A281B38188169906AA06BB069E
:101A3000A4F5F601E480F5802B893C89E20EF31EC3
:101A4000F801DE01119680E101900D928A95E1F78F
:101A5000005F1F4FA701BE016F5F7F4FA9A1BAA111
:101A600014968D919C9115979BDCF6012681378108
:101A7000D70112968D919C911397820F931F978394
:101A80008683BFEF8B1A9B0AAB0ABB0A2B893C8962
:101A90002C5F3F4F3C8B2B8BC2CF2D893E894F89CA
:101AA000588D2F5F3F4F4F4F5F4F2D8B3E8B4F8B8E
:101AB000588F63CF298D3A8D4B8D5C8D2F5F3F4FB3
:101AC0004F4F5F4F298F3A8F4B8F5C8F2D8D3E8DFF
:101AD0002C5F3F4F3E8F2D8F09CF6EE070E0C1012C
:101AE0000E94582DAF8DB8A11B969C938E931A9788
:101AF000812C912CA12CB12CC12CD12C24E4249D1F
:101B0000C001259D900D11249C0125583B4F3A8B17
:101B1000298B21E030E0A214B3040CF04DC0D801B1
:101B20004D915D916D917D918D01E989FA89E080FA
:101B3000F180E80CF91C77FD67C0D70111963C9342
:101B40002E934115510561057105A9F0CA012FA712
:101B500038AB4BA75CA76DA77EA70E94722DF7013B
:101B6000958384832FA538A94BA55CA56DA57EA57B
:101B7000892B31F449C0D70115961C921E921497F7
:101B8000F70153834283848195819783868391876C
:101B900080871386128681E090E0452B462B472BE9
:101BA00011F480E090E0C80ED91EFFEFAF1ABF0A13
:101BB0004EE0840E911CAFCF84E4849D8001859D0E
:101BC000100D11240F581B4FD8011D961C921E9208
:101BD0001C97C60133E0880F991F3A95E1F70E94E0
:101BE000722DF801918B808B892B71F0C601880FC3
:101BF000991F0E94722DD8011F969C938E931E9759
:101C0000892B11F080E005C0A101C301B201F8DC0D
:101C100081E0E0960FB6F894DEBF0FBECDBFDF9136
:101C2000CF911F910F91FF90EF90DF90CF90BF90D9
:101C3000AF909F908F907F906F905F904F903F906C
:101C40002F9008952F923F924F925F926F927F92C2
:101C50008F929F92AF92BF92CF92DF92EF92FF92BC
:101C60000F931F93CF93DF93CDB7DEB768970FB66F
:101C7000F894DEBF0FBECDBF9C8B8B8BDB0149017F
:101C80005A0124E4289DC001299D900D11249C0136
:101C90002F583B4F79012D913C911197F701358BCE
:101CA000248BFC01E957FB4F14964D915D916D918A
:101CB0007C9117974083518362837383FC01E557BE
:101CC000FB4F18964D915D916D917C911B974083D0
:101CD000518362837383FC01E157FB4F1C964D9146
:101CE0005D916D917C911F974083518362837383D3
:101CF000FC01E156FB4F50965C91509751964C91E8
:101D0000519752963C91529753962C9153975083EA
:101D10004183328323838D010C5E1F4F852F942FC7
:101D2000181619060CF068C0880F991F880F991FA4
:101D30000E94722DD701D3969C938E93D297892BB4
:101D400009F4BCC0212C312C412C512C32019701BB
:101D5000225D3F4F3E8B2D8B2C5F3F4F388F2F8B5B
:101D60002E5F3F4F3A8B298BB301A2012FEF421A0E
:101D7000520A620A720AED89FE8980819181A281EC
:101D8000B381481759076A077B074CF5AF89B88DAF
:101D9000CD90DC90C20CD31CF801DE01119680E1DD
:101DA00001900D928A95E1F7005F1F4FA601BE01D9
:101DB0006F5F7F4FEB89FC8984819581F1DAA98976
:101DC000BA898D919C911197F60122813381820FFE
:101DD000931F8D939C93F4E02F0E311CC5CFD70138
:101DE000D4968D919C91D5970E94722DF70197AB57
:101DF00086AB892B09F462C0F80180819181A281B0
:101E0000B38124E4289DF001299DF00D1124EF58A1
:101E1000FB4FAC01BD014D7F21E030E0452B462B4F
:101E2000472B11F020E030E033A322A324E4289DC7
:101E3000F001299DF00D1124EF58FB4F0197A109E6
:101E4000B10921E030E00297A105B10510F020E0D2
:101E500030E035A324A384E4889DF001899DF00D32
:101E60001124CF0189569B4FD80114964D915D9155
:101E70006D917C911797DC014D935D936D937C93ED
:101E80001397EF58FB4F868D978DA0A1B1A1B7FF97
:101E900010C0B095A095909581959F4FAF4FBF4FC3
:101EA00082AF93AFA4AFB5AF168E178E10A211A25A
:101EB0000AC012AE13AE14AE15AE05C0C501B40112
:101EC00003DA81E001C080E068960FB6F894DEBFC7
:101ED0000FBECDBFDF91CF911F910F91FF90EF907B
:101EE000DF90CF90BF90AF909F908F907F906F903A
:101EF0005F904F903F902F900895CF92DF92EF9296
:101F0000FF92CF93DF931092F90424E4269FF0010F
:101F1000279FF00D1124EF58FB4F15A614A620E0C3
:101F200030E0C12CD12CDF011A96C1E0D0E0C416FC
:101F3000D506D4F4ED91FC911197E20FF31FE280E6
:101F4000F3801E141F0454F4E480F580F782E682C7
:101F5000F186E08613861286D183C083EFEFCE1A16
:101F6000DE0A225F3F4FE3CF24E4269FF001279F44
:101F7000F00D1124EF58FB4F13A612A611AE10AEB0
:101F8000DF01DE961D921D921D921C92139782E036
:101F900090E0938B828BDF91CF91FF90EF90DF9059
:101FA000CF90089524E4269FF001279FF00D11247F
:101FB000EF58FB4F138A128A23CB24E4269FF001AB
:101FC000279FF00D1124EF58FB4F828993898130B0
:101FD0009105C8F08530910518F0059769F00895CE
:101FE0008FEF9FEFDC01828F938FA48FB58F85E0F9
:101FF00090E0938B828B08958FEF9FEFDC01828FAF
:10200000938FA48FB58F089524E4249FF001259F1A
:10201000F00D1124EF58FB4F2EE0AC01249FC001BE
:10202000259F900D11240284F385E02DE80FF91F00
:1020300081E08093F904828593859187808740852C
:1020400051852681378181E090E04217530711F0D6
:1020500080E090E09183808308952F923F924F9289
:102060005F926F927F928F929F92AF92BF92CF9228
:10207000DF92EF92FF920F931F93CF93DF93CDB731
:10208000DEB7C255D1090FB6F894DEBF0FBECDBF83
:1020900021969FAF8EAF21974BA75CA76DA77EA718
:1020A0004801590184E4889D8001899D100D112407
:1020B000F801EF58FB4F2285338527963FAF2EAFAF
:1020C000279782899389029709F060C186A597A511
:1020D000A0A9B1A9892B8A2B8B2B29F484E090E04D
:1020E000938B828B53C18489958921964EAD5FADC8
:1020F00021974817590709F049C186A997A99AABB2
:1021000089AB1EAE1DAE19AE1AAE1BAE1CAE8F0152
:10211000DF019E962996BFAFAEAF2997F2962B9618
:10212000FFAFEEAF2B979801285C3F4F2D963FAF46
:102130002EAF2D97A8014A5D5F4F2F965FAF4EAF30
:102140002F97C801829661969FAF8EAF61971A97BD
:102150006396BFAFAEAF63972996EEADFFAD2997FB
:1021600080819181A281B38129AD3AAD4BAD5CAD47
:10217000281739074A075B070CF0E7C02B96EEAD2E
:10218000FFAD2B97808191812DAD3EAD280F391F7A
:102190003EAB2DABD90112960D90BC91A02D23968C
:1021A000BFAFAEAF2397B695A795B695A7952596E1
:1021B000BFAFAEAF25972D96EEADFFAD2D978081C9
:1021C0009181892B09F496C02F96AEADBFAD2F97A4
:1021D000CD90DD90ED90FC9029A83AA8F9010190EE
:1021E000F081E02DF8ABEFA718AE1FAA8FA998AD2C
:1021F0002596AEADBFAD25978A179B070CF07AC028
:102200006196AEADBFAD61978D919C91892B69F1BF
:10221000EFA5F8A94080518062807380A7019601E4
:10222000C301B2010E94782C87FD0BC0A701960163
:10223000D1016D917D918D919C910E94C22B87FD62
:102240008CC0A7019601C301B2010E94782C181618
:1022500064F4A7019601F10160817181828193810B
:102260000E94C22B882309F478C06396AEADBFAD3F
:1022700063978D919C91892B69F1EFA5F8A9408016
:10228000518062807380A7019601C301B2010E9450
:10229000C22B87FF0BC0A7019601D1016D917D91E3
:1022A0008D919C910E94782C87FF57C0A7019601C1
:1022B000C301B2010E94C22B81110CC0A70196017B
:1022C000F10160817181828193810E94782C1816BE
:1022D0000CF443C02FA938AD2F5F3F4F38AF2FAB61
:1022E00034E0230E311C4FA558A94C5F5F4F58AB0B
:1022F0004FA77CCFEDA9FEA96081718123964EADD9
:102300005FAD239789A99AA90E94843225968EAD44
:102310009FAD2597880F991F880F991F29A93AA962
:10232000280F391F3AAB29AB89AD9AADABADBCAD27
:102330000196A11DB11D89AF9AAFABAFBCAFADADDA
:10234000BEAD1496BEAFADAF07CF81E090E0D8012F
:10235000D9969C938E93D89719C084E4889DF001F8
:10236000899DF00D1124EF58FB4F868D978DA0A10C
:10237000B1A1892B8A2B8B2B09F064C284E090E0F9
:10238000938B828B86AD97AD93A782A784E4889DBB
:10239000F001899DF00D1124EF58FB4F828993893C
:1023A0008230910571F482AD93ADA4ADB5AD181630
:1023B00019061A061B060CF04CC2CC24C394D12C6F
:1023C00005C0049709F045C2C12CD12C8EE021969E
:1023D000EEADFFAD21978E9F70018F9FF00C112401
:1023E00027962EAD3FAD2797E20EF31ED70112962A
:1023F0004D915C9113974115510509F42AC2169627
:102400008D919C9117979AA789A7FE01319684E137
:10241000DF011D928A95E9F7898A9A8AAB8ABC8A7C
:10242000C114D10409F457C084E4889DF001899D4A
:10243000F00D1124EF58FB4FDF01DE964D905D90BB
:102440006D907C9082AD93ADA4ADB5AD48165906A4
:102450006A067B0609F03FC0F7016481758100843C
:10246000F185E02D84819581A681B7819C018D8BBA
:102470009E8BAF8BB88F285F3F4F3E8B2D8BD70144
:1024800018968D919C911997280F391F19963C9396
:102490002E93189718968D919C911997460F571F58
:1024A000841B950B97FD06C0860F971F19969C936A
:1024B0008E93189784E4889DF001899DF00D112476
:1024C000E155FB4FB1E04B1A510861087108408299
:1024D0005182628273829E012B5E3F4FAE01475D47
:1024E0005F4F64E170E0C7010E94FB08082F10E015
:1024F0000115110509F091C18CE090E0A0E0B0E079
:102500008D839E83AF83B8879E01235E3F4FAE01CC
:10251000475D5F4F64E070E0C7010E94FB08082F31
:1025200010E00115110509F078C180E190E0A0E00C
:10253000B0E08D839E83AF83B8874D8D5E8DBE01E5
:10254000655D7F4F8F8D98A10E9484328BA19CA1E5
:10255000009761F06D8D7E8DEBE2F0E0EC0FFD1FDA
:102560006E0F7F1F49A15AA10E9484321DA21EA294
:102570001FA218A621962EAD3FAD2197220F331F23
:1025800038AF2FAB24E4289DC001299D900D112464
:102590008F589B4FAC014C5F5F4F5AAF49AFDC0186
:1025A0001896BEAFADAF2DA13EA14FA158A529AB46
:1025B0003AAB4BAB5CABE9ADFAAD80819181A281C6
:1025C000B381281739074A075B070CF0CFC0ADADC0
:1025D000BEADED91FC9189A99AA9880F991F880F2A
:1025E000991FE80FF91FA081B1818C91882309F40C
:1025F000AFC0833009F4ACC00280F381E02D2FA975
:1026000038ADE20FF31F4081518158AB4FA7452BE6
:1026100009F49EC089859A85AB85BC850196A11D6C
:10262000B11D89879A87AB87BC879E01235E3F4F88
:10263000AE01475D5F4F64E070E0C7010E94FB0898
:1026400090E0009709F0E8C08D819E81AF81B88548
:102650000496A11DB11D8D839E83AF83B8874D8DD8
:102660005E8DBE016B5D7F4F8F8D98A10E9484327D
:102670008BA19CA1009761F06D8D7E8DA5E2B0E0ED
:10268000AC0FBD1F6A0F7B1F49A15AA10E94843263
:102690001EAA1DAA412C512C3201EFA5F8A9808158
:1026A0009181A281B381481659066A067B060CF017
:1026B0004FC0EFA5F8A9248035802DA93EA9220E90
:1026C000331ED10112966D917C9113979E01235E6A
:1026D0003F4FAE01475D5F4FC7010E94FB0890E08E
:1026E000009709F099C0F10182819381092E000CB5
:1026F000AA0BBB0B4D815E816F817885840F951F7E
:10270000A61FB71F8D839E83AF83B88760817181B9
:102710004D8D5E8D8F8D98A10E9484328BA19CA1DE
:10272000009759F0D1016D917C912D8D3E8D620FF6
:10273000731F49A15AA10E948432BFEF4B1A5B0A52
:102740006B0A7B0AEDA9FEA93496FEABEDABA5CFD3
:1027500049A85AA86BA87CA8FFEF4F1A5F0A6F0A16
:102760007F0A4DA25EA26FA278A61DCF89859A85A9
:10277000AB85BC85892B8A2B8B2B09F44EC08AE153
:1027800090E0A0E0B0E089839A83AB83BC8321967C
:102790002EAD3FAD2197C901330FAA0BBB0B8D871F
:1027A0009E87AF87B88B4D895E89BE016F5F7F4F73
:1027B0008F89988D0E9484328B8D9C8D009761F05B
:1027C0006D897E8941E050E04C0F5D1F640F751FDD
:1027D000498D5A8D0E94843289A59AA5D7011796F2
:1027E0009C938E93169711961C921E92CD2889F178
:1027F00084E4889DF001899DF00D1124E155FB4F83
:1028000080819181A281B3810196A11DB11D808338
:102810009183A283B3831DC08C01CD28D1F4012BF9
:10282000C1F084E4889DF001899DF00D1124EF58DA
:10283000FB4F81E090E095A784A785E090E0938B23
:10284000828B07C083E090E0938B828B81E090E0E5
:102850009BCDCE5ADF4F0FB6F894DEBF0FBECDBF73
:10286000DF91CF911F910F91FF90EF90DF90CF906C
:10287000BF90AF909F908F907F906F905F904F90A0
:102880003F902F900895CF92DF92EF92FF920F9397
:102890001F936B017C0184E48C9DF0018D9DF00DF4
:1028A0001124EF58FB4F82899389009709F450C097
:1028B0000197B9F482A593A59C012F5F3F4F33A7E1
:1028C00022A7092E000CAA0BBB0B028D138D248DA1
:1028D000358D80179107A207B307D1F5C701B6015F
:1028E0000CDB84E48C9DF0018D9DF00D1124EF58DC
:1028F000FB4F82899389039759F582A593A59C0183
:102900002F5F3F4F33A722A7092E000CAA0BBB0B4A
:10291000468D578D60A171A184179507A607B7074B
:10292000BCF086AD97AD93A782A784E090E0938B2F
:10293000828B82AD93ADA4ADB5AD181619061A06FB
:102940001B0634F4EE5BFF4F81E090E091838083BF
:102950001F910F91FF90EF90DF90CF90089524E4A6
:10296000269FF001279FF00D1124EF58FB4F82891D
:1029700093890497B1F482A593A5019693A782A7A2
:10298000092E000CAA0BBB0B46895789608D718DEF
:1029900084179507A607B70721F485E090E0938B8D
:1029A000828B08952F923F924F925F926F927F9207
:1029B0008F929F92AF92BF92CF92DF92EF92FF924F
:1029C0000F931F93CF93DF93CDB7DEB72E970FB63C
:1029D000F894DEBF0FBECDBF49835A836B837C83DF
:1029E0004901442E552E24E4249DF001259DF00D2F
:1029F0001124EF58FB4F228833889101245031096C
:102A0000158614862230310508F0DDC0DC011196F0
:102A10001C921E9213961C921E921297A12CB12CFE
:102A200060E070E09F01265F3F4F38872F837F0172
:102A30003CE0E30EF11CDF015096BA87A9879F01A5
:102A4000225F3F4F3C872B87681579050CF06FC0DC
:102A5000EF81F885A081B1819D012A0D3B1D3E8744
:102A60002D87D9012D913C911197232B09F059C045
:102A700018960D911C9119971296ED91FC91139750
:102A8000FE83ED8316962D913C911797D7014D91BA
:102A90005C91DA01E3E0AA0FBB1FEA95E1F7E98553
:102AA000FA85C080D180FD01EC0DFD1D440F551F3E
:102AB000AB85BC85CD90DC904C0D5D1DDA016D932E
:102AC0007C93D7014D915C9111974F5F5F4F4D9370
:102AD0005C9313830283AD85BE851B963C932E9336
:102AE0001A970217130748F4201B310B31832083F8
:102AF000158214821782168214C0AD85BE85149685
:102B0000CD90DC9015974D815E814C0D5D1D401B75
:102B1000510B518340832C193D0935832483D7827F
:102B2000C6826F5F7F4FBEE0AB0EB11C8DCF24E439
:102B3000249D8001259D100D11240F581B4FF80175
:102B400024853585DC0111963C932E93408951896B
:102B500013965C934E9312974685578515965C9312
:102B60004E931497232BA1F5B5E02B16310481F574
:102B70001092F904828D938DA48DB58DAE014F5FB7
:102B80005F4F64E070E08F3F9F4FAF4FBF4F59F4EE
:102B900080E290E00E94AF2269817A818B819C81E2
:102BA000A40100DA15C08FE190E00E94AF22D801A5
:102BB0009B961C921E929A9781E090E053969C936C
:102BC0008E93529705C0FC011182108213821282EB
:102BD0002E960FB6F894DEBF0FBECDBFDF91CF911A
:102BE0001F910F91FF90EF90DF90CF90BF90AF902B
:102BF0009F908F907F906F905F904F903F902F901D
:102C00000895EF92FF920F931F93CF93DF937C0170
:102C10008B01EA010E943223811121C08091CC02F4
:102C20009091CD02049711F183E090E09093CD0252
:102C30008093CC021BC098819111F0CF28ED38EB26
:102C400045E050E060E070E0CB010E94BC25AE01A1
:102C5000B801C7010E94CA25C8010E94952580912C
:102C6000FA049091FB04892B31F3D8CFDF91CF91F7
:102C70001F910F91FF90EF900895CF93DF932091D4
:102C8000CC023091CD022430310541F0EB010E949D
:102C9000CA25CE01DF91CF910C949525DF91CF917C
:102CA00008950C94DC290C94D1290C94BF290C9420
:102CB000A5250C946329089560E070E080E090E021
:102CC0000C940D230895AF92BF92CF92DF92EF92B2
:102CD000FF920F931F93CF93DF931F921F92CDB755
:102CE000DEB75C0169017A018B0180E090E0C114DC
:102CF000D104E104F104F1F0C114D10421E0E206B1
:102D0000F10410F4A60102C04FEF5FEF9E012F5FA8
:102D10003F4FB801C5010E947D2A8F3F2FEF9207D8
:102D200049F029813A81C21AD30AE108F108020F59
:102D3000131FDDCF0F900F90DF91CF911F910F9157
:102D4000FF90EF90DF90CF90BF90AF9008950895DF
:102D500008951F920F920FB60F9211240BB60F9287
:102D60002F933F934F935F936F937F938F939F9393
:102D7000AF93BF93EF93FF93E091D202F091D30210
:102D80001995FF91EF91BF91AF919F918F917F9195
:102D90006F915F914F913F912F910F900BBE0F90CC
:102DA0000FBE0F901F9018951F920F920FB60F92A3
:102DB00011240BB60F922F933F934F935F936F9312
:102DC0007F938F939F93AF93BF93EF93FF93E09184
:102DD000D402F091D5021995FF91EF91BF91AF9177
:102DE0009F918F917F916F915F914F913F912F9123
:102DF0000F900BBE0F900FBE0F901F9018951F9253
:102E00000F920FB60F9211240BB60F922F933F9390
:102E10004F935F936F937F938F939F93AF93BF93E2
:102E2000EF93FF93E091D602F091D7021995FF91AD
:102E3000EF91BF91AF919F918F917F916F915F9132
:102E40004F913F912F910F900BBE0F900FBE0F909F
:102E50001F9018951F920F920FB60F9211240BB668
:102E60000F922F933F934F935F936F937F938F9323
:102E70009F93AF93BF93EF93FF93E091D802F091AC
:102E8000D9021995FF91EF91BF91AF919F918F91C9
:102E90007F916F915F914F913F912F910F900BBE5A
:102EA0000F900FBE0F901F9018951F920F920FB6A4
:102EB0000F9211240BB60F922F933F934F935F9372
:102EC0006F937F938F939F93AF93BF93EF93FF93F2
:102ED000E091CE02F091CF021995FF91EF91BF9151
:102EE000AF919F918F917F916F915F914F913F91A2
:102EF0002F910F900BBE0F900FBE0F901F90189543
:102F00001F920F920FB60F9211240BB60F922F93B0
:102F10003F934F935F936F937F938F939F93AF9361
:102F2000BF93EF93FF93E091D002F091D1021995F6
:102F3000FF91EF91BF91AF919F918F917F916F9191
:102F40005F914F913F912F910F900BBE0F900FBE4D
:102F50000F901F9018951F920F920FB60F92112489
:102F60000BB60F922F933F934F935F936F937F9383
:102F70008F939F93AF93BF93EF93FF93E091DA0208
:102F8000F091DB021995FF91EF91BF91AF919F9165
:102F90008F917F916F915F914F913F912F910F9002
:102FA0000BBE0F900FBE0F901F9018951F920F929F
:102FB0000FB60F9211240BB60F922F933F934F939E
:102FC0005F936F937F938F939F93AF93BF93EF9391
:102FD000FF93E091DC02F091DD021995FF91EF91F2
:102FE000BF91AF919F918F917F916F915F914F9121
:102FF0003F912F910F900BBE0F900FBE0F901F901F
:1030000018951F920F920FB60F9211242F933F9392
:103010008F939F93AF93BF938091FD049091FE0493
:10302000A091FF04B09100053091FC0423E0230F30
:103030002D3720F40196A11DB11D05C026E8230FF0
:103040000296A11DB11D2093FC048093FD04909372
:10305000FE04A093FF04B0930005809101059091B8
:103060000205A0910305B09104050196A11DB11DB3
:103070008093010590930205A0930305B093040586
:10308000BF91AF919F918F913F912F910F900FBE64
:103090000F901F9018952FB7F8946091FD047091D0
:1030A000FE048091FF04909100052FBF08953FB763
:1030B000F8948091010590910205A0910305B091CB
:1030C000040526B5A89B05C02F3F19F00196A11D48
:1030D000B11D3FBFBA2FA92F982F8827820F911DAE
:1030E000A11DB11DBC01CD0142E0660F771F881FF5
:1030F000991F4A95D1F708958F929F92AF92BF92F0
:10310000CF92DF92EF92FF926B017C01D0DF4B01F7
:103110005C01C114D104E104F104F1F018DEC7DF51
:10312000DC01CB0188199909AA09BB09883E9340A3
:10313000A105B10570F321E0C21AD108E108F10838
:1031400088EE880E83E0981EA11CB11CC114D10426
:10315000E104F10421F7DDCFFF90EF90DF90CF90F5
:10316000BF90AF909F908F900895789484B58260BF
:1031700084BD84B5816084BD85B5826085BD85B51B
:10318000816085BDEEE6F0E0808181608083E1E8CA
:10319000F0E0108280818260808380818160808302
:1031A000E0E8F0E0808181608083E1EBF0E0808105
:1031B00084608083E0EBF0E0808181608083E1E9DE
:1031C000F0E0808182608083808181608083E0E99B
:1031D000F0E0808181608083E1EAF0E080818260BC
:1031E0008083808181608083E0EAF0E0808181607B
:1031F0008083E1E2F1E08081826080838081816070
:103200008083E0E2F1E0808181608083EAE7F0E0A2
:1032100080818460808380818260808380818160FE
:1032200080838081806880831092C100089590E03F
:10323000FC013197E231F10508F04EC08827EA57CA
:10324000FF4F8F4F0C94372D809180008F7703C0F4
:10325000809180008F7D8093800008958091800010
:10326000877FF9CF84B58F7702C084B58F7D84BD09
:1032700008958091B0008F7703C08091B0008F7D5A
:103280008093B0000895809190008F7707C080915F
:1032900090008F7D03C080919000877F8093900085
:1032A00008958091A0008F7707C08091A0008F7D46
:1032B00003C08091A000877F8093A0000895809133
:1032C00020018F7707C0809120018F7D03C08091FE
:1032D0002001877F8093200108951F93CF93DF9370
:1032E000282F30E0F901E05BFE4F8491F901EA56A6
:1032F000FE4FD491F901E452FE4FC491CC23C1F0AA
:10330000162F811194DFEC2FF0E0EE0FFF1FEE5D22
:10331000FD4FA591B4918FB7F894111105C09C9100
:10332000ED2FE095E92302C0EC91ED2BEC938FBFDC
:10333000DF91CF911F910895FC01918D228D892FEE
:1033400090E0805C9F4F821B91098F7399270895AD
:10335000FC01918D828D981731F0828DE80FF11D5F
:10336000858D90E008958FEF9FEF0895FC01918D7A
:10337000828D981761F0828DDF01A80FB11D5D96D7
:103380008C91928D9F5F9F73928F90E008958FEF45
:103390009FEF0895FC01848DDF01A80FB11DA35A92
:1033A000BF4F2C91848D90E001968F739927848F65
:1033B000A689B7892C93A089B1898C9180648C935C
:1033C000938D848D981306C00288F389E02D808147
:1033D0008F7D80830895CF93DF93EC01888D8823C0
:1033E000C1F0EA89FB89808185FD05C0A889B9897A
:1033F0008C9186FD0EC00FB607FCF5CF808185FF4E
:10340000F2CFA889B9898C9185FFEDCFCE01C2DFBB
:10341000E8CFDF91CF910895EF92FF920F931F9322
:10342000CF93DF93EC0181E0888F9B8D8C8D981377
:1034300005C0E889F989808185FD23C0F62E0B8DB2
:1034400010E00F5F1F4F0F731127E02E8C8DE812D5
:103450000BC00FB607FCFACFE889F989808185FF98
:10346000F5CFCE0197DFF2CF8B8DFE01E80FF11D76
:10347000E35AFF4FF0820B8FEA89FB8980818062DB
:1034800007C0EE89FF896083E889F98980818064BB
:10349000808381E090E0DF91CF911F910F91FF90A9
:1034A000EF900895CF92DF92EF92FF921F93CF9308
:1034B000DF93EC016A017B01122FE889F98982E030
:1034C00080834115514E61057105B1F060E079E0EE
:1034D0008DE390E0A70196010E94152DDA01C90144
:1034E0000197A109B109B695A79597958795AC0164
:1034F000411580E15807A8F0E889F989108260E851
:1035000074E88EE190E0A70196010E94152DBA01A2
:10351000A90141505109610971097695679557953F
:103520004795EC85FD855083EE85FF854083188E99
:10353000EC89FD891083EA89FB8980818061808321
:10354000EA89FB89808188608083EA89FB898081A0
:1035500080688083EA89FB8980818F7D8083DF9109
:10356000CF911F91FF90EF90DF90CF9008951F9221
:103570000F920FB60F9211240BB60F922F938F93C9
:103580009F93EF93FF93E0911505F09116058081CD
:10359000E0911B05F0911C0582FD12C09081809185
:1035A0001E058F5F8F7320911F05821751F0E091E8
:1035B0001E05F0E0EB5FFA4F958F80931E0501C06A
:1035C0008081FF91EF919F918F912F910F900BBE72
:1035D0000F900FBE0F901F9018951F920F920FB66D
:1035E0000F9211240BB60F922F933F934F935F933B
:1035F0006F937F938F939F93AF93BF93EF93FF93BB
:1036000085E095E0C7DEFF91EF91BF91AF919F916B
:103610008F917F916F915F914F913F912F910F907B
:103620000BBE0F900FBE0F901F901895E5E0F5E0D0
:103630001382128288EE93E0A0E0B0E08483958349
:10364000A683B78385EC93E09183808385EC90E03B
:103650009587848784EC90E09787868780EC90E05C
:10366000918B808B81EC90E0938B828B82EC90E04D
:10367000958B848B86EC90E0978B868B118E128EC7
:10368000138E148E08951F920F920FB60F9211246D
:103690000BB60F922F938F939F93EF93FF93E0912D
:1036A000B205F091B3058081E091B805F091B905BC
:1036B00082FD12C090818091BB058F5F8F73209136
:1036C000BC05821751F0E091BB05F0E0EE55FA4FD2
:1036D000958F8093BB0501C08081FF91EF919F91F1
:1036E0008F912F910F900BBE0F900FBE0F901F90D8
:1036F00018951F920F920FB60F9211240BB60F92CE
:103700002F933F934F935F936F937F938F939F93E9
:10371000AF93BF93EF93FF9382EA95E03BDEFF9177
:10372000EF91BF91AF919F918F917F916F915F9139
:103730004F913F912F910F900BBE0F900FBE0F90A6
:103740001F901895E2EAF5E01382128288EE93E06A
:10375000A0E0B0E084839583A683B78385EC93E0F3
:10376000918380838DEC90E0958784878CEC90E04A
:103770009787868788EC90E0918B808B89EC90E02E
:10378000938B828B8AEC90E0958B848B8EEC90E00F
:10379000978B868B118E128E138E148E08951F9226
:1037A0000F920FB60F9211240BB60F922F938F9397
:1037B0009F93EF93FF93E0914F06F0915006808125
:1037C000E0915506F091560682FD12C090818091DD
:1037D00058068F5F8F7320915906821751F0E09140
:1037E0005806F0E0E15CF94F958F8093580601C0D0
:1037F0008081FF91EF919F918F912F910F900BBE40
:103800000F900FBE0F901F9018951F920F920FB63A
:103810000F9211240BB60F922F933F934F935F9308
:103820006F937F938F939F93AF93BF93EF93FF9388
:103830008FE396E0AFDDFF91EF91BF91AF919F9144
:103840008F917F916F915F914F913F912F910F9049
:103850000BBE0F900FBE0F901F901895EFE3F6E090
:103860001382128288EE93E0A0E0B0E08483958317
:10387000A683B78385EC93E09183808385ED90E008
:103880009587848784ED90E09787868780ED90E028
:10389000918B808B81ED90E0938B828B82ED90E019
:1038A000958B848B86ED90E0978B868B118E128E94
:1038B000138E148E08951F920F920FB60F9211243B
:1038C0000BB60F922F938F939F93EF93FF93E091FB
:1038D000EC06F091ED068081E091F206F091F3069E
:1038E00082FD12C090818091F5068F5F8F732091C9
:1038F000F606821751F0E091F506F0E0E452F94F38
:10390000958F8093F50601C08081FF91EF919F9183
:103910008F912F910F900BBE0F900FBE0F901F90A5
:1039200018951F920F920FB60F9211240BB60F929B
:103930002F933F934F935F936F937F938F939F93B7
:10394000AF93BF93EF93FF938CED96E023DDFF9150
:10395000EF91BF91AF919F918F917F916F915F9107
:103960004F913F912F910F900BBE0F900FBE0F9074
:103970001F901895ECEDF6E01382128288EE93E02A
:10398000A0E0B0E084839583A683B78385EC93E0C1
:103990009183808385E391E09587848784E391E038
:1039A0009787868780E391E0918B808B81E391E01C
:1039B000938B828B82E391E0958B848B86E391E0FD
:1039C000978B868B118E128E138E148E08958F9284
:1039D0009F92AF92BF92CF92DF92EF92FF920F939E
:1039E0001F93CF93DF937C018B016C0182E0C80EA3
:1039F000D11C4701E5E08E0E911CC0E0D0E0F6013D
:103A000061916F014AE050E0C801D9D05C016EE2DB
:103A1000C80167D08A0D9B1DC80FD91FC814D904CF
:103A200071F74AE050E0F7016581C801C8D08C0FFA
:103A30009D1FDF91CF911F910F91FF90EF90DF902D
:103A4000CF90BF90AF909F908F900895E9E7F7E0F7
:103A500085ED93E091838083128213821482158214
:103A60000895CF92DF92EF92FF920F931F93CF931F
:103A7000DF936C017A018B01C0E0D0E0CE15DF0549
:103A800089F0D8016D918D01D601ED91FC910190E5
:103A9000F081E02DC6011995892B11F47E0102C039
:103AA0002196ECCFC701DF91CF911F910F91FF902D
:103AB000EF90DF90CF9008956115710579F0FB01CB
:103AC00001900020E9F73197AF01461B570BDC014D
:103AD000ED91FC910280F381E02D199480E090E05B
:103AE0000895DC01ED91FC910190F081E02D199495
:103AF00067ED73E0E1CF0F931F93CF93DF93EC015A
:103B0000DBDF8C01CE01F4DF800F911FDF91CF91BD
:103B10001F910F9108954F925F926F927F92EF9253
:103B2000FF920F931F93CF93DF93CDB7DEB7A1978B
:103B30000FB6F894DEBF0FBECDBF7C01FA01CB01FA
:103B400019A2223008F42AE08E010F5D1F4F422E89
:103B5000512C612C712CBF01A30192010E94152DE3
:103B6000F901CA01015011096A3014F4605D01C005
:103B7000695CD8016C93232B242B252B61F7B801AA
:103B8000C7019ADFA1960FB6F894DEBF0FBECDBF76
:103B9000DF91CF911F910F91FF90EF907F906F90E9
:103BA0005F904F9008952115310541F4DC01ED91AE
:103BB000FC910190F081E02D642F1994ACCF9A0113
:103BC000462F50E060E070E0EECF0F931F93CF934D
:103BD000DF93EC0160DA688779878A879B87E881C1
:103BE000F9810680F781E02DCE01199597FF16C067
:103BF00052DA088519852A853B85DC01CB01801BBB
:103C0000910BA20BB30B0C811D812E813F8180177C
:103C10009107A207B30718F38FEF9FEFDF91CF91C2
:103C20001F910F910895CF92DF92EF92FF920F9321
:103C30001F93CF93DF936C017A018B01C0E0D0E03A
:103C4000CE15DF0559F0C601C0DF97FF02C07E0127
:103C500005C0F80181938F012196F2CFC701DF9152
:103C6000CF911F910F91FF90EF90DF90CF9008952B
:103C70008230A9F028F4882349F0813051F008956A
:103C8000843021F1E8F0853039F1089510926E000A
:103C9000089580916F008D7F80936F0008958091CB
:103CA00070008D7F8093700081E08093B0008091E0
:103CB000B100887F84608093B1001092B3000895B2
:103CC000809171008D7F80937100089580917200C2
:103CD0008D7F809372000895809173008D7F809313
:103CE00073000895CF93C82F8091DE028C1307C014
:103CF000ECE3F2E0E4918FEF8093DE0201C0EFEF9E
:103D00008E2FB6DF60E08C2FCF91E7CA1F920F9203
:103D10000FB60F9211240BB60F922F933F934F9330
:103D20005F936F937F938F939F93AF93BF93EF9323
:103D3000FF938091820790918307A0918407B091AF
:103D40008507892B8A2B8B2B51F180917F07E0917E
:103D50008007F09181079081892780838091820775
:103D600090918307A0918407B091850718161906D2
:103D70001A061B06BCF48091820790918307A091DC
:103D80008407B09185070197A109B1098093820743
:103D900090938307A0938407B093850703C0809115
:103DA000DE02A0DFFF91EF91BF91AF919F918F91C4
:103DB0007F916F915F914F913F912F910F900BBE2B
:103DC0000F900FBE0F901F90189540E855E260E0ED
:103DD00070E080E090E007D040E855E260E070E0FD
:103DE00081E090E000C08130910571F01CF4892BD6
:103DF00039F008958230910559F0039769F00895DC
:103E000026E085E095E00BC026E082EA95E007C059
:103E100026E08FE396E003C026E08CED96E042CBEF
:103E20000895CF92DF92EF92FF920F931F933FD9A5
:103E3000609386077093870780938807909389071C
:103E400000918A0710918B0720918C0730918D0784
:103E50006B017C01C01AD10AE20AF30A40E3C416DE
:103E600045E7D406E104F10448F160938A077093B2
:103E70008B0780938C0790938D070E94B72A17D9E0
:103E800000918A0710918B0720918C0730918D0744
:103E9000DC01CB01801B910BA20BB30B8033954748
:103EA000A105B10538F081E090E09093BC078093C4
:103EB000BB0704C01092BC071092BB0781E01F91A2
:103EC0000F91FF90EF90DF90CF9008956F927F92C7
:103ED0008F929F92AF92BF92CF92DF92EF92FF921A
:103EE0000F931F93CF93DF935C017B014A0101E0A5
:103EF00010E00E151F0564F568018FEFC81AD80A87
:103F0000E801CC0FDD1FC80DD91D688079806114D0
:103F10007104E1F066EE73E0C3010E949F32892BC9
:103F200019F41982188212C069EE73E0C3010E946D
:103F30009F32892B59F4CE14DF0441F06801E2E08E
:103F4000CE0ED11C198218821B821A828601D1CF13
:103F500081E0F5018083B401C7010E94072AF501C1
:103F60009283818380E090E0DF91CF911F910F9148
:103F7000FF90EF90DF90CF90BF90AF909F908F9089
:103F80007F906F9008958EE897E0089580E00895FF
:103F90000F931F93CF93DF938B01BA01E90119822D
:103FA00018829801012E000C440B550BFC018181F5
:103FB00092810E946316019621F01983088380E0A4
:103FC00001C081E0DF91CF911F910F9108950F9370
:103FD0001F93CF93DF931F921F92CDB7DEB7FB01E4
:103FE0008A01B9019E012F5F3F4FAF01FC01818122
:103FF00092810E941E2A019639F089819A81F801E6
:104000009183808380E001C081E00F900F90DF9169
:10401000CF911F910F910895FC018081089508951B
:10402000089581E0FB01808380E008950895109257
:10403000B8070895FC01818192810C94FE29CF93E9
:10404000DF93CDB7DEB72A970FB6F894DEBF0FBE69
:10405000CDBFAC01CB0160E070E049835A836B8334
:104060007C83092E000CAA0BBB0B8D839E83AF8330
:10407000B8879E01275F3F4FAE014F5F5F4F68E0FB
:1040800070E08091A7079091A80782DF811108C096
:1040900081E029853A852830310519F480E001C096
:1040A00081E02A960FB6F894DEBF0FBECDBFDF9138
:1040B000CF9108950F931F93CF93DF931F921F9279
:1040C000CDB7DEB78B019E012F5F3F4FAC018091D2
:1040D000A7079091A8075CDF811108C081E02981C2
:1040E0003A812017310719F480E001C081E00F9078
:1040F0000F90DF91CF911F910F910895CF93DF9390
:10410000EC011092AB071092AA071092B707109219
:10411000B607AC0160E070E0CB010E94D20FAE01A7
:1041200061E070E080E090E00E94D20F8091A707EC
:104130009091A807DF91CF9179CF4F925F926F92C4
:104140007F928F929F92AF92BF92CF92DF92EF9227
:10415000FF920F931F93CF93DF931F921F92CDB7C0
:10416000DEB79C016C0197FF03C087E0C80ED11C2D
:1041700043E0D594C7944A95E1F7C90168E070E03F
:104180000E94022D7C0189010E5F1F4F8091A507BF
:104190009091A607801791070CF0DCC08091A307CF
:1041A0009091A407009731F00E94072E1092A60765
:1041B0001092A507C8010E94722D9093A4078093C6
:1041C000A307892B29F01093A6070093A507C2C067
:1041D000A12CB12CAC14BD040CF05EC0412C512CB0
:1041E000320100E010E098012455384FAE014F5FD6
:1041F0005F4F61E070E08091A7079091A807E7DE2C
:10420000811198C189819A812FEF421A520A620A5C
:10421000720A20E942162FE5520621E06206710477
:104220003CF06091B6077091B7078DEE90E02DC01D
:10423000080F191F0A30110551F549E050E060E000
:1042400070E08CEA97E00E94A92A6091B60770910D
:10425000B7078823C1F08091B40790E06817790709
:1042600009F0B8CF8EEE90E0EADE8091B60790912B
:10427000B707019699279093B7078093B6078FEFFA
:10428000A81AB80AA7CF8FEE90E0D9DEA7CF0A30E0
:1042900011050CF4A8CF9ECFEF2809F44BC1C12C17
:1042A000D12C760100E010E098012455384FAE0182
:1042B0004F5F5F4F61E070E08091A7079091A80782
:1042C00086DE811137C189819A812FEFC21AD20A05
:1042D000E20AF20A20E9C2162FE5D20621E0E20640
:1042E000F1043CF06091B6077091B7078DEE90E055
:1042F0002AC0080F191F0A30110539F549E050E0AE
:1043000060E070E08CEA97E00E94A92A6091B6070D
:104310007091B7078823A9F08091B40790E06817DF
:10432000790709F007C18EEE90E089DE8091B6072B
:104330009091B707019699279093B7078093B60796
:10434000F9C08FEE90E07BDEAACF0A3011050CF4A5
:10435000ABCFF0C000E010E00C151D050CF077C0ED
:10436000412C512C3201A12CB12C480193E0880C36
:10437000991C9A95E1F72091A3073091A407C401F5
:104380008A0D9B1D280F391FAE014F5F5F4F61E003
:1043900070E08091A7079091A80719DE8111CAC02B
:1043A00089819A812FEF421A520A620A720A20E921
:1043B00042162FE5520621E0620671043CF060913E
:1043C000B6077091B7078DEE90E034C0A80EB91E05
:1043D0008AE0A816B104A9F549E050E0B401809143
:1043E000A3079091A4070E94A92A6091B607709133
:1043F000B7078823E9F08091A3079091A407FC01F7
:10440000E80DF91D808590E06817790709F0A4CFC1
:104410008EEE90E014DE8091B6079091B70701967A
:1044200099279093B7078093B6070F5F1F4F94CFDC
:104430008FEE90E004DE412C512C3201A12CB12CE6
:104440009ACF2AE0A216B1040CF495CF85CFE114DF
:10445000F10409F46AC0680183E0CC0CDD1C8A9584
:10446000E1F7812C912C540100E010E098012455D3
:10447000384FAE014F5F5F4F61E070E08091A7075A
:104480009091A807A4DD811155C089819A812FEFF1
:10449000821A920AA20AB20A20E982162FE592062F
:1044A00021E0A206B1043CF06091B6077091B70715
:1044B0008DEE90E034C0080F191F0A30110589F500
:1044C00049E050E060E070E08CEA97E00E94A92AA1
:1044D0006091B6077091B7078823F9F08091B4070F
:1044E00090E06817790709F58EEE90E0A8DD8091DD
:1044F000A3079091A407A7016CEA77E08C0D9D1D9E
:104500000E9484328091B6079091B707019699274F
:104510009093B7078093B60708C08FEE90E08FDDC9
:10452000A0CF0A3011050CF4A1CF8091A307909180
:10453000A40702C080E090E00F900F90DF91CF9130
:104540001F910F91FF90EF90DF90CF90BF90AF90B1
:104550009F908F907F906F905F904F900895CF9233
:10456000DF92EF92FF920F931F93CF93DF931F92EF
:10457000CDB7DEB76C017B018A01452B31F0AB0171
:1045800060E070E0C801E1D78983B701C60157DD5B
:1045900081110DC00115110551F0B701C8018ADD67
:1045A000811105C061E070E0CE01019683DD0F90BE
:1045B000DF91CF911F910F91FF90EF90DF90CF90FF
:1045C0000895CF92DF92EF92FF92CF93DF93CDB712
:1045D000DEB728970FB6F894DEBF0FBECDBF6B01D4
:1045E000E12CF12CC982DA82EB82FC822D833E839E
:1045F0004F835887AE014F5F5F4F68E070E0AFDFD9
:1046000028960FB6F894DEBF0FBECDBFDF91CF91D5
:10461000FF90EF90DF90CF9008950F931F93CF936B
:10462000DF93EC018B01AFDC9093A8078093A70781
:10463000009739F0A801BE0149DCEC01892B19F47F
:104640000BC0C5EFD3E08091A7079091A807E7DCE6
:104650001092A8071092A707CE01DF91CF911F916A
:104660000F9108958091A7079091A807D5CC2F921C
:104670003F924F925F926F927F928F929F92AF92F2
:10468000BF92CF92DF92EF92FF920F931F93CF933F
:10469000DF93CDB7DEB769970FB6F894DEBF0FBED4
:1046A000CDBF2091AB07222309F426C25D8B4C8B32
:1046B000688B798B8A8B9B8B9A01AB01BC01CE01F5
:1046C00001960E94D21410E038E0232E312C89810B
:1046D0009A81181619060CF00AC21F861E861D86BE
:1046E0001C8689819A81AC85BD85A817B9070CF015
:1046F000F3C1EB81FC812E853F85E20FF31F208102
:1047000031813093A2072093A107848195819093F2
:10471000A00780939F074281538150939E07409347
:104720009D074681578150939C0740939B07820FBA
:10473000931F9C01990F440B550B2E8B3F8B488F79
:10474000598FC12CD12C76012E893F89488D598DE6
:10475000C216D306E406F50608F0A2C11F826091D6
:10476000A1077091A2078B01072E000C220B330BBF
:10477000D701C6010496A11DB11D80179107A2079C
:10478000B30728F4E0919D07F0919E070AC0E4E08A
:10479000F0E0E61BF70BEC0DFD1D80919B0790915F
:1047A0009C07E80FF91F4080512C612C712CD70118
:1047B000C6010596A11DB11D80179107A207B30779
:1047C00028F4E0919D07F0919E070AC0E5E0F0E033
:1047D000E61BF70BEC0DFD1D80919B0790919C074C
:1047E000E80FF91F8081582AD701C6010696A11D3E
:1047F000B11D80179107A207B30728F4E0919D0728
:10480000F0919E070AC0E6E0F0E0E61BF70BEC0D26
:10481000FD1D80919B0790919C07E80FF91F8081F7
:10482000682AD701C6010796A11DB11D80179107FF
:10483000A207B30728F4E0919D07F0919E070AC0F4
:10484000E7E0F0E0E61BF70BEC0DFD1D80919B0708
:1048500090919C07E80FF91F8081782A4601570143
:1048600048E0840E911CA11CB11C081519052A05ED
:104870003B0508F4B4C0C016D106E206F30638F4CE
:1048800080919D0790919E078C0D9D1D09C0C601CA
:10489000861B970B20919B0730919C07820F931FDB
:1048A00068E070E007DCE091A107F091A2079F01AA
:1048B0000F2E000C440B550BD301C201880D991D1E
:1048C000AA1DBB1D281739074A075B07C8F08216C7
:1048D0009306A406B50638F420919D0730919E07F3
:1048E000C601089609C0C1018E1B9F0B8C0D9D1D32
:1048F00020919B0730919C07820F931FB20199C0B2
:104900008601BF01685071096C197D0982169306F2
:10491000A406B50638F420919D0730919E07C60184
:10492000089609C0C1018E1B9F0B8C0D9D1D209107
:104930009B0730919C07820F931FBCDB8091A107DE
:104940009091A207B101681B790B600F711F640D74
:10495000751D80919B0790919C07ACDB8091A1070E
:104960009091A207AC0148505109FA01E01BF10BEC
:10497000AC01092E000C660B770B84169506A60673
:10498000B70638F420919D0730919E07C60108961E
:104990000AC09101281B390BC9018C0D9D1D209166
:1049A0009B0730919C07820F931FAF0160E070E07E
:1049B000CCD58F832091A1073091A207A101421B82
:1049C000530B9A01200F311F240D351D40E050E09C
:1049D000682F80919B0790919C07A3D550C0C0166B
:1049E000D106E206F306C8F46C197D0980919D0793
:1049F00090919E078C0D9D1D5DDB8091A10790918C
:104A0000A207B101681B790B6C0D7D1D640D751D2E
:104A100080919B0790919C070CC0C601861B970B49
:104A200020919B0730919C07B201685F7F4F820FF6
:104A3000931F40DB8091A1079091A207AC01092E42
:104A4000000C660B770B84169506A606B70638F49D
:104A500020919D0730919E07C60108960AC0D1019A
:104A6000A81BB90BCD018C0D9D1D20919B0730918A
:104A70009C07820F931FA20160E070E066D58F83D0
:104A800061E070E0CE01079615DB182FB8E04B0E01
:104A9000511C611C711CC40CD51CE61CF71C54CEA7
:104AA0008C859D85880F991FED81FE81E80FF91F88
:104AB000488959896A897B89808191810E94041083
:104AC0004C855D854F5F5F4F5D874C878E859F85E9
:104AD00008969F878E8705CE2C893D8948895989FC
:104AE0006A897B89CE0101960E94D214F0CD1123F0
:104AF00019F08C899D8902DB69960FB6F894DEBFA8
:104B00000FBECDBFDF91CF911F910F91FF90EF901E
:104B1000DF90CF90BF90AF909F908F907F906F90DD
:104B20005F904F903F902F900895CF93DF93EC01CB
:104B3000AC0160E070E0CB019ADDAE0161E070E0B5
:104B400080E090E0DF91CF9192CDCF938091A70745
:104B50009091A8071BDAC82F81110BC060E070E0AC
:104B6000CB010E94D40A61E070E080E090E00E94F6
:104B7000D40A8C2FCF9108950F931F9389019A0126
:104B8000AB01BC018091A7079091A80749DA1F915A
:104B90000F9108953F924F925F926F927F928F9202
:104BA0009F92AF92BF92CF92DF92EF92FF920F93BC
:104BB0001F93CF93DF93CDB7DEB767970FB6F89407
:104BC000DEBF0FBECDBF6C017B015A018091AB07E8
:104BD000882331F08091AB07882309F45CC30AC0B5
:104BE0006BEA77E08091A7079091A8071ADA811104
:104BF00052C3F0CF8091AA071A821982882309F440
:104C00006AC0E0E94E2EEFE55E2E66246394712CB7
:104C100000E010E098012F56384FAE014F5F5F4F14
:104C200061E070E08091A7079091A807D0D9982EF5
:104C300081114DC089819A81080F191F0115110535
:104C400009F445C081E0481A51086108710839F437
:104C50006091B6077091B7078DEE90E030C00A30D2
:104C6000110589F549E050E060E070E081E997E0E6
:104C700070D46091B6077091B7078823F1F08091E6
:104C8000990790E068177907D9F48EEE90E0D7D9AC
:104C900088E0E1E9F7E0DE01199601900D928A952E
:104CA000E1F72091B6073091B7072F5F3F4F3327C9
:104CB0003093B7072093B6070AC08FEE90E0BFD9B4
:104CC0001A82198204C00A3011050CF4A3CF81E0C6
:104CD00029813A8124C000E010E078E0672E712C31
:104CE00029E030E02C0F3D1F200F311FAE014F5F38
:104CF0005F4FB301601B710B8091A7079091A807CC
:104D000066D9982E29813A81811108C0020F131F9C
:104D10000115110519F00830110514F381E0121680
:104D200013060CF080E09110B3C2882309F4B3C2DB
:104D30008091AA07811104C019861A861B861C86D9
:104D400089859A85AB85BC858031910508F0A3C221
:104D5000FC018827E856FF4F8F4F89C6D60116966B
:104D6000ED91FC91179780819181A281B381898314
:104D70009A83AB83BC83AE014F5F5F4F64E070E00A
:104D800085E190E07DC18D859E85D7D9009731F46E
:104D90002FEF3FEFA90161E070E00EC0FC018080C1
:104DA0009180A280B380A701C501B4010E947D0F4C
:104DB000A501940160E070E08DE190E067C28D850F
:104DC0009E85BBD9009721F42FEF3FEFA90110C0BA
:104DD000DC018D909D90AD90BD90AD019501840159
:104DE000B701C6010E94190CA5019401882319F08E
:104DF00061E070E002C060E070E08BE190E046C2EC
:104E00008D859E859AD9009721F42FEF3FEFA90158
:104E10000FC0FC0181909190A190B190BF01A501BC
:104E20009401C6010E94220EA5019401882319F065
:104E300061E070E002C060E070E08CE190E026C2CA
:104E4000D6011496ED91FC91159700811181F8011E
:104E500082809380A080B18060E1462E512C612C2D
:104E6000712C49825A826B827C8288E090E0A0E0BB
:104E7000B0E08D839E83AF83B8879E012F5E3F4F46
:104E8000AE014F5F5F4F68E070E08091A70790919F
:104E9000A8077ED8882319F000E010E0BAC08989FD
:104EA0009A890897C9F7D801ED90FC90B8E0EB0E0D
:104EB000F11CEE0CFF1CEE0CFF1CC70113D68C017D
:104EC000892B51F349825A826B827C82C7010F2C55
:104ED000000CAA0BBB0B8D839E83AF83B8879E010A
:104EE0002F5E3F4FAE014F5F5F4F68E070E08091F3
:104EF000A7079091A8074CD881118BC089899A89FE
:104F0000089709F086C0D6011296ED91FC9113978F
:104F10004081518162817381D8014D935D936D937E
:104F20007C931397448155816681778114964D93C4
:104F30005D936D937C93179740855185628573854A
:104F400018964D935D936D937C931B9784859585FF
:104F5000A685B785F80184879587A687B787108AC5
:104F6000118A128A138A84E090E0A0E0B0E0848B7A
:104F7000958BA68BB78B8091CC029091CD02A0E04F
:104F8000B0E0808F918FA28FB38FC5010B2C000CE6
:104F9000AA0BBB0B848F958FA68FB78FF401D80116
:104FA000909680E090E08A159B0554F441915191D0
:104FB00060E070E04D935D936D937D930196F3CF28
:104FC0009E012F5E3F4FA801B7018091A7079091E6
:104FD000A8070E94C81F81111CC089899A898E1553
:104FE0009F05B9F4A70160E070E0C801AED28B8BD9
:104FF0009E012F5E3F4FAE014D5E5F4F61E070E05E
:105000008091A7079091A8070E94C81F81E0809314
:10501000AA07C80167960FB6F894DEBF0FBECDBFD2
:10502000DF91CF911F910F91FF90EF90DF90CF9084
:10503000BF90AF909F908F907F906F905F904F90B8
:105040003F90E5C58D859E85AF85B8890097A10500
:10505000B10521F481E08093A9071DC16ED80097A6
:1050600089F481E090E0A0E0B0E089839A83AB838B
:10507000BC83AE014F5F5F4F64E070E082E190E07F
:105080006EDA09C1BC01C6010E94270A19821A8280
:105090001B821C82AE014F5F5F4F64E070E082E1D3
:1050A00090E05DDA8111F7C0D5CFD6011496ED916D
:1050B000FC9115970190F081E02D008511858FEF0F
:1050C00089830115110509F472C0D8016D907C9097
:1050D000A280B38020E030E060E070E080E090E00B
:1050E000861597050CF5F801A281B381A20FB31FB5
:1050F0001296ED91FC911397EE0FFF1FEA0DFB1D29
:105100000190F081E02D16960D90BC91A02DEA9FA4
:10511000A001EB9F500DFA9F500D1124640F751FD5
:105120000196285F3F4FDCCF83E190E00E941F2073
:105130008111B1C0C12CD12CE12CF12CE614F70463
:105140007CF5D8011296ED91FC911397EC0DFD1DA5
:1051500080809180A281B381AA0FBB1FAA0DBB1DC5
:105160002D913C9186819781289F2001299F500C89
:10517000389F500C1124B201C4010E945A20382ECD
:10518000920140E050E06981C401CBD18983B8E04D
:10519000CB0ED11C31107FC0EFEFEE1AFE0ACECF3E
:1051A00061E070E0CE0101960E945A2074C060E078
:1051B00070E083E190E00E941F206DC040E050E06D
:1051C00060E070E081E190E0CAD9811164C0812C77
:1051D000912C5401C501B4010E94000C8091F90486
:1051E000882321F0A701C501B40141DAA701C50157
:1051F000B4010E94000B8A9489288A288B2829F000
:10520000812C912C54018394E5CF1092AB0710921E
:10521000AA071092B7071092B6078091A70790913E
:10522000A8070E94172037C081E090E09093FB040C
:105230008093FA0440E050E060E070E086E190E0A6
:105240001FCF81E0D5018C9326C08D859E850E945D
:105250009D20009731F42FEF3FEFA90161E070E04E
:1052600013C0FC012081318142815381CA01B901FF
:105270002C8B3D8B4E8B5F8B0E94DD0F2C893D89E3
:105280004E895F8960E070E08EE190E09AD903C0BA
:10529000C7010E947E2067960FB6F894DEBF0FBE4E
:1052A000CDBFDF91CF911F910F91FF90EF90DF90D5
:1052B000CF90BF90AF909F908F907F906F905F90B6
:1052C0004F903F900895CF92DF92EF92FF92CF934D
:1052D000DF93EC01C12CD12C7601C701B6010E94ED
:1052E000000CAE01C701B601C2D9AE01C701B601BB
:1052F0000E94000B8091A3079091A407009729F0CA
:1053000086D41092A4071092A307CA94CD28CE2861
:10531000CF2829F0C12CD12C7601C394DECF809107
:10532000AA07882359F040E050E060E070E084E193
:1053300090E015D9F82E1092AA0701C0F12C8091A7
:10534000AB07882341F01092AB0781E090E0909387
:10535000CD028093CC028091A7079091A8070E946C
:105360001A208091A7079091A8070E940F208F2DE7
:10537000DF91CF91FF90EF90DF90CF900895CF9382
:10538000DF93EC01AC0160E070E0CB010E944314BC
:10539000AE0161E070E080E090E0DF91CF910C948D
:1053A000431460E070E0CB010E94AF1461E070E054
:1053B00080E090E00C94AF14CF92DF92EF92FF92D6
:1053C0000F931F93CF93DF93EC016A017B0100E001
:1053D00010E098010E942D1001E010E020E030E084
:1053E000B701A601CE010E942D10DF91CF911F9130
:1053F0000F91FF90EF90DF90CF90089568EE73E0EB
:1054000080E090E00E947C1880E090E0089526E023
:1054100040E050E16EE070E085E095E00E94521AB5
:1054200085E095E00E949C19892B29F085E095E0A4
:105430000E94B619F5CF80E090E00895AF92BF9238
:10544000CF92DF92EF92FF920F931F93CF93DF9350
:105450001F921F92CDB7DEB77A018901F90111823F
:10546000108285E095E069837A830E949C196981A6
:105470007A81892B99F15B01DD24D39485E6C82ECE
:105480008091B807811124C085E095E00E94B6198B
:1054900085369105A9F7D092B807F501C1925F0151
:1054A000F80180819181019691838083E9CF85E025
:1054B00095E00E94B6198F3FFFEF9F0749F0F50175
:1054C00081935F01F80180819181019691838083AE
:1054D000F801808191818E159F0548F380E090E06E
:1054E0000F900F90DF91CF911F910F91FF90EF9050
:1054F000DF90CF90BF90AF9008950F931F93CF93FD
:10550000DF93EA01890185E095E00E94311DF801F1
:10551000D183C08380E090E0DF91CF911F910F9104
:105520000895DC01A40FB51F240F351FAD01481BE2
:10553000590B4217530738F4ED91E627F0E0E35C8E
:10554000FD4F6491F3CF862F08959A01AB016FEF61
:10555000E8CFCF93FC01E60FF71FE40FF51FC081E2
:10556000F4DF91E0C81390E0892FCF9108958091E6
:10557000BA0791E0980F9093BA07882349F021E089
:1055800030E03093BC072093BB078093BA0708959F
:105590000E9438068091BA0781508093BA070C9414
:1055A0005316FF920F931F93CF93DF931F921F9277
:1055B000CDB7DEB7FF24F394FA820E94B5180E949B
:1055C000E51E0091BF031091C003F8011182108203
:1055D00060E070E080E090E00E945C160E940008AD
:1055E0007894C80186960E945B1681E090E00E9444
:1055F00057161982AE014F5F5F4F61E070E0F8010E
:10560000828193810E9401168981882311F0F8011B
:10561000F2A60E946216F8940E94101FF801808181
:105620009181892B19F481E092A5911180E08A8300
:105630007894FF24F3948A81882371F11982AE0152
:105640004F5F5F4F61E070E0F801828193810E94BB
:105650003D168981882311F0F801F2A6F8018081B6
:105660009181892B31F481E092A5911103C080E0F2
:1056700001C081E08093B9079091B90781E0911151
:1056800080E08A838A81882319F00E94111F02C05A
:1056900080E090E08A83CFCF0E94E30881E090E031
:1056A0000E945916F89480E090E00F900F90DF91DF
:1056B000CF911F910F91FF9008955058BB27AA27B3
:1056C0000ED0DCC0CDD030F0D2D020F031F49F3FEE
:1056D00011F41EF4C2C00EF4E095E7FBB8C0E92F48
:1056E000DED080F3BA17620773078407950718F0B6
:1056F00071F49EF5F6C00EF4E0950B2EBA2FA02D96
:105700000B01B90190010C01CA01A0011124FF276E
:10571000591B99F0593F50F4503E68F11A16F04069
:10572000A22F232F342F4427585FF3CF4695379568
:105730002795A795F0405395C9F77EF41F16BA0B2D
:10574000620B730B840BBAF09150A1F0FF0FBB1FDB
:10575000661F771F881FC2F70EC0BA0F621F731F24
:10576000841F48F4879577956795B795F7959E3F81
:1057700008F0B3CF9395880F08F09927EE0F97950F
:105780008795089540D008F481E00895E89409C011
:1057900097FB3EF490958095709561957F4F8F4F64
:1057A0009F4F9923A9F0F92F96E9BB279395F6957A
:1057B000879577956795B795F111F8CFFAF4BB0FF8
:1057C00011F460FF1BC06F5F7F4F8F4F9F4F16C05C
:1057D000882311F096E911C0772321F09EE8872FE6
:1057E000762F05C0662371F096E8862F70E060E0A2
:1057F0002AF09A95660F771F881FDAF7880F96951B
:10580000879597F90895990F0008550FAA0BE0E8BE
:10581000FEEF16161706E807F907C0F01216130672
:10582000E407F50798F0621B730B840B950B39F4B2
:105830000A2661F0232B242B252B21F408950A2618
:1058400009F4A140A6958FEF811D811D089597F958
:105850009F6780E870E060E008959FEF80EC089516
:1058600000240A941616170618060906089500243F
:105870000A9412161306140605060895092E0394B9
:10588000000C11F4882352F0BB0F40F4BF2B11F42D
:1058900060FF04C06F5F7F4F8F4F9F4F089557FD8C
:1058A0009058440F551F59F05F3F71F04795880F8E
:1058B00097FB991F61F09F3F79F087950895121625
:1058C00013061406551FF2CF4695F1DF08C01616D1
:1058D00017061806991FF1CF869571056105089482
:1058E0000895E894BB2766277727CB0197F9089599
:1058F0008ADF08F48FEF08950BD0C0CFB1DF28F016
:10590000B6DF18F0952309F0A2CFA7CF1124EACF74
:10591000C6DFA0F3959FD1F3950F50E0551F629F0E
:10592000F001729FBB27F00DB11D639FAA27F00DF8
:10593000B11DAA1F649F6627B00DA11D661F829F1F
:105940002227B00DA11D621F739FB00DA11D621F04
:10595000839FA00D611D221F749F3327A00D611D21
:10596000231F849F600D211D822F762F6A2F112403
:105970009F5750408AF0E1F088234AF0EE0FFF1F56
:10598000BB1F661F771F881F91505040A9F79E3F8D
:10599000510570F05CCFA6CF5F3FECF3983EDCF38F
:1059A000869577956795B795F795E7959F5FC1F7CA
:1059B000FE2B880F911D9695879597F90895DB0129
:1059C0008F939F935CD0BF91AF91A29F800D911D4B
:1059D000A39F900DB29F900D11240895AA1BBB1B8D
:1059E00051E107C0AA1FBB1FA617B70710F0A61BDF
:1059F000B70B881F991F5A95A9F780959095BC0100
:105A0000CD01089597FB072E16F4009406D077FD7C
:105A100008D0E4DF07FC05D03EF4909581959F4FB8
:105A20000895709561957F4F0895A1E21A2EAA1BE3
:105A3000BB1BFD010DC0AA1FBB1FEE1FFF1FA2173E
:105A4000B307E407F50720F0A21BB30BE40BF50B3B
:105A5000661F771F881F991F1A9469F760957095C4
:105A6000809590959B01AC01BD01CF010895EE0F8B
:105A7000FF1F881F8BBF0790F691E02D199409D066
:105A8000A59F900DB49F900DA49F800D911D112492
:105A90000895A29FB001B39FC001A39F700D811D07
:105AA0001124911DB29F700D811D1124911D089527
:105AB0000F931F93CF93DF93869F8001879F100DD5
:105AC000969F100D1124C8010DD0EC01009721F014
:105AD000A80160E070E021D5CE01DF91CF911F9148
